{
  "address": "0x5FbDB2315678afecb367f032d93F642f64180aa3",
  "abi": [
    {
      "inputs": [],
      "stateMutability": "nonpayable",
      "type": "constructor"
    },
    {
      "anonymous": false,
      "inputs": [
        {
          "indexed": false,
          "internalType": "string",
          "name": "to",
          "type": "string"
        },
        {
          "indexed": false,
          "internalType": "uint256",
          "name": "value",
          "type": "uint256"
        }
      ],
      "name": "Mint",
      "type": "event"
    },
    {
      "anonymous": false,
      "inputs": [
        {
          "indexed": false,
          "internalType": "string",
          "name": "from",
          "type": "string"
        },
        {
          "indexed": false,
          "internalType": "string",
          "name": "to",
          "type": "string"
        },
        {
          "indexed": false,
          "internalType": "uint256",
          "name": "value",
          "type": "uint256"
        }
      ],
      "name": "Transfer",
      "type": "event"
    },
    {
      "inputs": [
        {
          "internalType": "string",
          "name": "userId",
          "type": "string"
        }
      ],
      "name": "balanceOf",
      "outputs": [
        {
          "internalType": "uint256",
          "name": "",
          "type": "uint256"
        }
      ],
      "stateMutability": "view",
      "type": "function"
    },
    {
      "inputs": [
        {
          "internalType": "string",
          "name": "userId",
          "type": "string"
        },
        {
          "internalType": "uint256",
          "name": "amount",
          "type": "uint256"
        }
      ],
      "name": "mint",
      "outputs": [],
      "stateMutability": "nonpayable",
      "type": "function"
    },
    {
      "inputs": [],
      "name": "owner",
      "outputs": [
        {
          "internalType": "address",
          "name": "",
          "type": "address"
        }
      ],
      "stateMutability": "view",
      "type": "function"
    },
    {
      "inputs": [
        {
          "internalType": "string",
          "name": "fromUserId",
          "type": "string"
        },
        {
          "internalType": "string",
          "name": "toUserId",
          "type": "string"
        },
        {
          "internalType": "uint256",
          "name": "amount",
          "type": "uint256"
        }
      ],
      "name": "transfer",
      "outputs": [],
      "stateMutability": "nonpayable",
      "type": "function"
    }
  ],
  "transactionHash": "0xee6ed756250326ced3758cec037ed63c89a4a756b3878540603ccbf89a749c12",
  "args": [],
  "numDeployments": 1,
  "solcInputHash": "80a9e1e57804eaf78d37a6c2a8e25218",
  "bytecode": "0x608060405234801561001057600080fd5b50336000806101000a81548173ffffffffffffffffffffffffffffffffffffffff021916908373ffffffffffffffffffffffffffffffffffffffff160217905550610a6c806100606000396000f3fe608060405234801561001057600080fd5b506004361061004c5760003560e01c8063056b01ce1461005157806335ee5f871461006d5780638da5cb5b1461009d5780639b80b050146100bb575b600080fd5b61006b6004803603810190610066919061053c565b6100d7565b005b6100876004803603810190610082919061047c565b61021a565b6040516100949190610805565b60405180910390f35b6100a5610242565b6040516100b29190610715565b60405180910390f35b6100d560048036038101906100d091906104bd565b610266565b005b60008054906101000a900473ffffffffffffffffffffffffffffffffffffffff1673ffffffffffffffffffffffffffffffffffffffff163373ffffffffffffffffffffffffffffffffffffffff1614610165576040517f08c379a000000000000000000000000000000000000000000000000000000000815260040161015c906107e5565b60405180910390fd5b600081116101a8576040517f08c379a000000000000000000000000000000000000000000000000000000000815260040161019f906107a5565b60405180910390fd5b806001836040516101b991906106fe565b908152602001604051809103902060008282546101d691906108a8565b925050819055507f0a4e1e5035320483d096cf114513007c4eda3853a4dca806da2d9faec60470a6828260405161020e929190610775565b60405180910390a15050565b600060018260405161022c91906106fe565b9081526020016040518091039020549050919050565b60008054906101000a900473ffffffffffffffffffffffffffffffffffffffff1681565b60008054906101000a900473ffffffffffffffffffffffffffffffffffffffff1673ffffffffffffffffffffffffffffffffffffffff163373ffffffffffffffffffffffffffffffffffffffff16146102f4576040517f08c379a00000000000000000000000000000000000000000000000000000000081526004016102eb906107e5565b60405180910390fd5b60018360405161030491906106fe565b908152602001604051809103902054811115610355576040517f08c379a000000000000000000000000000000000000000000000000000000000815260040161034c906107c5565b60405180910390fd5b8060018460405161036691906106fe565b9081526020016040518091039020600082825461038391906108fe565b925050819055508060018360405161039b91906106fe565b908152602001604051809103902060008282546103b891906108a8565b925050819055507f5358be4df107be4d9b023fc323f41d7109610225c6ef211b9d375b9fbd7ccc4f8383836040516103f293929190610730565b60405180910390a1505050565b600061041261040d84610851565b610820565b90508281526020810184848401111561042a57600080fd5b61043584828561096e565b509392505050565b600082601f83011261044e57600080fd5b813561045e8482602086016103ff565b91505092915050565b60008135905061047681610a1f565b92915050565b60006020828403121561048e57600080fd5b600082013567ffffffffffffffff8111156104a857600080fd5b6104b48482850161043d565b91505092915050565b6000806000606084860312156104d257600080fd5b600084013567ffffffffffffffff8111156104ec57600080fd5b6104f88682870161043d565b935050602084013567ffffffffffffffff81111561051557600080fd5b6105218682870161043d565b925050604061053286828701610467565b9150509250925092565b6000806040838503121561054f57600080fd5b600083013567ffffffffffffffff81111561056957600080fd5b6105758582860161043d565b925050602061058685828601610467565b9150509250929050565b61059981610932565b82525050565b60006105aa82610881565b6105b4818561088c565b93506105c481856020860161097d565b6105cd81610a0e565b840191505092915050565b60006105e382610881565b6105ed818561089d565b93506105fd81856020860161097d565b80840191505092915050565b6000610616601d8361088c565b91507f416d6f756e74206d7573742062652067726561746572207468616e20300000006000830152602082019050919050565b600061065660158361088c565b91507f496e73756666696369656e742062616c616e63652e00000000000000000000006000830152602082019050919050565b6000610696602f8361088c565b91507f4f6e6c792074686520636f6e7472616374206f776e65722063616e2063616c6c60008301527f20746869732066756e6374696f6e2e00000000000000000000000000000000006020830152604082019050919050565b6106f881610964565b82525050565b600061070a82846105d8565b915081905092915050565b600060208201905061072a6000830184610590565b92915050565b6000606082019050818103600083015261074a818661059f565b9050818103602083015261075e818561059f565b905061076d60408301846106ef565b949350505050565b6000604082019050818103600083015261078f818561059f565b905061079e60208301846106ef565b9392505050565b600060208201905081810360008301526107be81610609565b9050919050565b600060208201905081810360008301526107de81610649565b9050919050565b600060208201905081810360008301526107fe81610689565b9050919050565b600060208201905061081a60008301846106ef565b92915050565b6000604051905081810181811067ffffffffffffffff82111715610847576108466109df565b5b8060405250919050565b600067ffffffffffffffff82111561086c5761086b6109df565b5b601f19601f8301169050602081019050919050565b600081519050919050565b600082825260208201905092915050565b600081905092915050565b60006108b382610964565b91506108be83610964565b9250827fffffffffffffffffffffffffffffffffffffffffffffffffffffffffffffffff038211156108f3576108f26109b0565b5b828201905092915050565b600061090982610964565b915061091483610964565b925082821015610927576109266109b0565b5b828203905092915050565b600061093d82610944565b9050919050565b600073ffffffffffffffffffffffffffffffffffffffff82169050919050565b6000819050919050565b82818337600083830152505050565b60005b8381101561099b578082015181840152602081019050610980565b838111156109aa576000848401525b50505050565b7f4e487b7100000000000000000000000000000000000000000000000000000000600052601160045260246000fd5b7f4e487b7100000000000000000000000000000000000000000000000000000000600052604160045260246000fd5b6000601f19601f8301169050919050565b610a2881610964565b8114610a3357600080fd5b5056fea2646970667358221220012c496e0514667b398a06f525d7ac340cabaebb03b13a7a5d400d04f529568464736f6c63430008000033",
  "devdoc": {
    "author": "罗政",
    "kind": "dev",
    "methods": {},
    "title": "TimeCoin system contract 1.0",
    "version": 1
  },
  "userdoc": {
    "kind": "user",
    "methods": {},
    "notice": "This contract is for managing the time coin of users",
    "version": 1
  },
  "storageLayout": {
    "storage": [
      {
        "astId": 4,
        "contract": "contracts/TimeCoin.sol:TimeCoin",
        "label": "owner",
        "offset": 0,
        "slot": "0",
        "type": "t_address"
      },
      {
        "astId": 8,
        "contract": "contracts/TimeCoin.sol:TimeCoin",
        "label": "balances",
        "offset": 0,
        "slot": "1",
        "type": "t_mapping(t_string_memory_ptr,t_uint256)"
      }
    ],
    "types": {
      "t_address": {
        "encoding": "inplace",
        "label": "address",
        "numberOfBytes": "20"
      },
      "t_mapping(t_string_memory_ptr,t_uint256)": {
        "encoding": "mapping",
        "key": "t_string_memory_ptr",
        "label": "mapping(string => uint256)",
        "numberOfBytes": "32",
        "value": "t_uint256"
      },
      "t_string_memory_ptr": {
        "encoding": "bytes",
        "label": "string",
        "numberOfBytes": "32"
      },
      "t_uint256": {
        "encoding": "inplace",
        "label": "uint256",
        "numberOfBytes": "32"
      }
    }
  }
}